:100000000C945D000C9485000C9485000C94850084
:100010000C9485000C9485000C9485000C9485004C
:100020000C9485000C9485000C9485000C9485003C
:100030000C9485000C9485000C9485000C9485002C
:100040000C9496030C9485000C9485000C94850008
:100050000C9485000C9485000C9485000C9485000C
:100060000C94E0030C94850000000000240027009D
:100070002A0000000000250028002B0004040404CE
:100080000404040402020202020203030303030342
:10009000010204081020408001020408102001021F
:1000A00004081020000000080002010000030407FB
:1000B00000000000000000000E0511241FBECFEF5D
:1000C000D8E0DEBFCDBF11E0A0E0B1E0EEE7FCE09C
:1000D00002C005900D92AA36B107D9F722E0AAE630
:1000E000B1E001C01D92AF31B207E1F710E0CDE5FC
:1000F000D0E004C02197FE010E943206CC35D10722
:10010000C9F70E942E050C943D060C94000090E067
:10011000FC01EC55FF4F3491FC01E057FF4F249157
:10012000FC01E458FF4FE491EE2309F43BC0332374
:1001300039F1333091F038F43130A9F0323001F533
:1001400084B58F7D12C0373091F03830A1F0343053
:10015000B9F4809180008F7D03C0809180008F77FB
:10016000809380000DC084B58F7784BD09C08091D5
:10017000B0008F7703C08091B0008F7D8093B00076
:10018000F0E0EE0FFF1FEE58FF4FA591B4918FB72F
:10019000F894EC91611103C020952E2301C02E2B01
:1001A0002C938FBF08953FB7F8948091FC019091F4
:1001B000FD01A091FE01B091FF0126B5A89B05C0ED
:1001C0002F3F19F00196A11DB11D3FBFBA2FA92FD6
:1001D000982F8827820F911DA11DB11DBC01CD0153
:1001E00042E0660F771F881F991F4A95D1F708953F
:1001F0008F929F92AF92BF92CF92DF92EF92FF9237
:100200006B017C010E94D3004B015C01C114D1043D
:10021000E104F104F1F00E94D300DC01CB01881964
:100220009909AA09BB09883E9340A105B10570F35D
:1002300021E0C21AD108E108F10888EE880E83E0B7
:10024000981EA11CB11CC114D104E104F10419F7DA
:10025000DDCFFF90EF90DF90CF90BF90AF909F9059
:100260008F900895CF92DF92EF92FF920F931F939A
:10027000CF93DF936C017A018B01C0E0D0E0CE1503
:10028000DF0589F0D8016D918D01D601ED91FC91CA
:100290000190F081E02DC6010995892B11F47E01B2
:1002A00002C02196ECCFC701DF91CF911F910F9132
:1002B000FF90EF90DF90CF900895089581E090E057
:1002C0003091060220910502321710F480E090E090
:1002D000919581959109089580910602909105026A
:1002E000891730F48F5F8093060280E090E00895D4
:1002F0008FEF9FEF08958091050290E02091060214
:10030000821B91090895089580E090E0089585ED9D
:100310008093BC008091BC0084FDFCCF109202024F
:10032000089540918C01262F30E0240F311D213299
:100330003105DCF4209102022430C9F4FC0180E094
:1003400090E0861758F430918C012191DC01A65978
:10035000BE4FA30FB11D2C930196F3CF80918C015A
:10036000680F60938C0180E0089581E0089582E039
:100370000895CF92DF92EF92FF920F931F93CF9346
:10038000DF937C01262F972F8A018091D501882346
:1003900091F0C62FD72F6E01C40ED51ECC15DD05EA
:1003A00071F06991D701ED91FC910190F081E02D00
:1003B000C7010995F3CF642F822F0E949101C801D4
:1003C000DF91CF911F910F91FF90EF90DF90CF9031
:1003D0000895CF93DF931F92CDB7DEB76983209145
:1003E000D5012223D1F020910302203240F021E0F8
:1003F00030E0FC013383228380E090E015C08091DF
:100400000402E82FF0E0EA52FE4F998190838F5F5B
:10041000809304028093030205C061E0CE0101963F
:100420000E94910181E090E00F90DF91CF910895BB
:10043000CF93FC01C48121E02093D501C093F60144
:1004400010920402109203028385682B87E092E0E9
:100450000E94E90180910302813208F046C0909128
:1004600002029111FCCF92E09093020291E09093EE
:1004700001029FEF9093D4011092D3018093D20197
:10048000A6EDB1E022EB31E0F9019E2F921B981707
:1004900018F49D919193F9CF1092B1018091B1011F
:1004A000CC0FC82BC093B10180910002813061F460
:1004B000109200028091B1018093BB008091BC003A
:1004C00083FDF8CF85EC01C085EE8093BC00809160
:1004D00002028230E1F38091D4018F3F31F08091AC
:1004E000D401803211F08091D40110920402109254
:1004F00003021092D501CF9108950F931F93CF93CC
:100500008C01C62F0E9418026C2F6460C8010E94E3
:1005100018026C2F6B7FC8010E94180283EC90E0D8
:100520000197F1F7CF911F910F910895FF920F93CB
:100530001F93CF93DF931F92CDB7DEB78C01F62EBA
:10054000962F907F692F642BC80149830E947D02FA
:1005500080E1F89EB00111244981642BC8010F90FD
:10056000DF91CF911F910F91FF900C947D02CF935B
:10057000DF93CDB7DEB728970FB6F894DEBF0FBE76
:10058000CDBF28E0E2E0F1E0DE01119601900D928E
:100590002A95E1F720911B02261710F46FEF620FE6
:1005A000FE013196E60FF11DE60FF11D9081682FD7
:1005B000690F606840E083E192E028960FB6F894F6
:1005C000DEBF0FBECDBFDF91CF910C949602CF93CB
:1005D000DF9310920602109205021092040210920C
:1005E00003021092020281E0809301021092000245
:1005F00061E082E10E94870061E083E10E94870060
:100600008091B9008E7F8093B9008091B9008D7F71
:100610008093B90088E48093B80085E48093BC009F
:100620001092180280911D02823018F098E0909389
:10063000180280931B0262E370E080E090E00E9469
:10064000F80060911E0283E192E00E94180268EEB9
:1006500073E080E090E00E94F80060E383E192E0C4
:100660000E947D02CBE4D6E4CE010197F1F760E36E
:1006700083E192E00E947D022197F1F760E383E13C
:1006800092E00E947D0283E592E00197F1F760E23B
:1006900083E192E00E947D0260911802606240E076
:1006A00083E192E00E94960284E08093190240E088
:1006B0006CE083E192E00E94960240E061E083E119
:1006C00092E00E949602CBE3DFE1CE010197F1F7C1
:1006D00082E080931A0240E066E083E192E00E94AB
:1006E000960240E062E083E192E00E949602219748
:1006F000F1F7DF91CF91089541E00E94960281E0E9
:1007000090E00895009769F0FC0101900020E9F75E
:100710003197AF01481B590BBC0183E192E00C9467
:10072000320180E090E008950E9438061F920F92F7
:100730000FB60F9211242F933F938F939F93AF93F4
:10074000BF938091F8019091F901A091FA01B091C5
:10075000FB013091F70123E0230F2D3720F40196A0
:10076000A11DB11D05C026E8230F0296A11DB11DD4
:100770002093F7018093F8019093F901A093FA0177
:10078000B093FB018091FC019091FD01A091FE01CD
:10079000B091FF010196A11DB11D8093FC019093C2
:1007A000FD01A093FE01B093FF01BF91AF919F9116
:1007B0008F913F912F910F900FBE0F901F90189522
:1007C0001F920F920FB60F9211242F933F934F93C6
:1007D0005F936F937F938F939F93AF93BF93EF93A9
:1007E000FF938091B900887F803609F49CC068F53A
:1007F000883209F45BC090F4803109F454C038F4B5
:10080000882309F4F6C0883009F44DC0F6C0883159
:1008100009F44CC0803209F45DC0EFC0803409F4A3
:1008200068C048F4803309F455C0883309F0E5C046
:100830008093D401D8C0803509F44FC0883509F4BD
:100840005DC0883409F0D9C0D6C0883909F4C7C062
:10085000A8F4883709F467C038F4883609F463C00F
:10086000803709F460C0C9C0883809F4B8C080393D
:1008700009F45FC0803809F0C0C05BC0803B09F458
:1008800086C038F4803A09F466C0883A09F47FC01B
:10089000B4C0803C09F4A7C0883C09F4A4C0883BDC
:1008A00009F48AC0AAC08091B10110C09091D3010F
:1008B0008091D201981770F5E091D30181E08E0FFD
:1008C0008093D301F0E0EE54FE4F80818093BB0013
:1008D00085EC86C08093D4018EC0E091D30181E085
:1008E0008E0F8093D3018091BB00F0E0EE54FE4F59
:1008F00080839091D3018091D2016EC0E091D301A9
:1009000081E08E0F8093D3018091BB00F0E0EE5424
:10091000FE4F80838091010281116DC081E0809340
:10092000000284EA61C083E0809302021092B00169
:10093000CFCF8091B001803208F051C0E091B0017A
:1009400081E08E0F8093B0018091BB00F0E0E05712
:10095000FE4F8083BDCF85EC8093BC0010920202D5
:100960008091B001803230F4E091B001F0E0E057C6
:10097000FE4F10826091B00170E0E0918E01F09125
:100980008F0180E991E009951092B00136C084E0B2
:100990008093020210928D0110928C01E0918A01E5
:1009A000F0918B01099580918C01811105C081E046
:1009B00080938C0110926A01E0918D0181E08E0F8D
:1009C00080938D01F0E0E659FE4F80818093BB005B
:1009D00090918D0180918C01981708F479CF85E86A
:1009E0008093BC000AC085EC8093BC001092020288
:1009F00004C01092D4010E948701FF91EF91BF9132
:100A0000AF919F918F917F916F915F914F913F91A6
:100A10002F910F900FBE0F901F901895E7E0F2E016
:100A20001382128288EE93E0A0E0B0E08483958385
:100A3000A683B7838EE091E091838083E3E1F2E0C7
:100A40001382128280E291E09183808387E2848323
:100A500084E1818784E0828713860895CF93DF93B2
:100A6000CDB7DEB7A1970FB6F894DEBF0FBECDBFEE
:100A7000789484B5826084BD84B5816084BD85B579
:100A8000826085BD85B5816085BD80916E00816085
:100A900080936E001092810080918100826080932B
:100AA000810080918100816080938100809180002D
:100AB0008160809380008091B10084608093B10058
:100AC0008091B00081608093B00080917A00846052
:100AD00080937A0080917A00826080937A0080917E
:100AE0007A00816080937A0080917A008068809398
:100AF0007A001092C100EDE9F0E02491E9E8F0E01D
:100B00008491882399F090E0880F991FFC01E8599F
:100B1000FF4FA591B491FC01EE58FF4F8591949140
:100B20008FB7F894EC91E22BEC938FBF0E94E70211
:100B30000E94E70288E080931E0260E083E192E079
:100B40000E94180260E080E00E94B70288E291E013
:100B50000E94820361E080E00E94B70286E391E098
:100B60000E94820362E080E00E94B70282E491E08A
:100B70000E94820363E082E00E94B70287E591E071
:100B80000E9482038AE0882E912CA12CB12C90E047
:100B9000E92E90E0F92E61E08DE00E94870060E090
:100BA0008DE00E9487008091000190910101892BC6
:100BB00041F461E08CE00E94B70283E691E00E947C
:100BC000820361E08CE00E94B70280910001909165
:100BD00001019C012F5F3F4F3093010120930001E1
:100BE0009C0140E050E019A28E010F5D1F4FCA0129
:100BF000B901A50194010E941006605DF80162939D
:100C00008F01211531054105510589F7CF010E945A
:100C10008203E114F10409F4BECF0E940000BBCFAF
:100C2000A1E21A2EAA1BBB1BFD010DC0AA1FBB1FF0
:100C3000EE1FFF1FA217B307E407F50720F0A21B62
:100C4000B30BE40BF50B661F771F881F991F1A94CF
:100C500069F760957095809590959B01AC01BD01F9
:100C6000CF010895EE0FFF1F0590F491E02D099438
:0E0C700081E090E0F8940C943D06F894FFCFDC
:100C7E00E8FD000040001400540000000000E901EF
:100C8E00B90184015D017B016C015E010000000071
:100C9E007C0332018401830148656C6C6F2C2077D4
:100CAE006F726C6421004D722E2051206865726542
:100CBE00210041726475696E6F204C434D20494985
:100CCE0043203230303400506F77657220427920E5
:0A0CDE0051210020202020200000FA
:00000001FF
